{
  "address": "0x551bB8bddFD07bf5120f37B16Ad8b2a6EBb2B560",
  "abi": [
    {
      "anonymous": false,
      "inputs": [
        {
          "indexed": true,
          "internalType": "address",
          "name": "from",
          "type": "address"
        },
        {
          "indexed": true,
          "internalType": "address",
          "name": "to",
          "type": "address"
        },
        {
          "indexed": true,
          "internalType": "uint256",
          "name": "id",
          "type": "uint256"
        }
      ],
      "name": "Transfer",
      "type": "event"
    },
    {
      "inputs": [
        {
          "internalType": "address",
          "name": "_addr",
          "type": "address"
        }
      ],
      "name": "at",
      "outputs": [
        {
          "internalType": "bytes",
          "name": "o_code",
          "type": "bytes"
        }
      ],
      "stateMutability": "view",
      "type": "function"
    },
    {
      "inputs": [
        {
          "internalType": "address",
          "name": "receiver",
          "type": "address"
        },
        {
          "internalType": "uint96",
          "name": "per10Thousands",
          "type": "uint96"
        }
      ],
      "name": "contractURI",
      "outputs": [
        {
          "internalType": "string",
          "name": "",
          "type": "string"
        }
      ],
      "stateMutability": "pure",
      "type": "function"
    },
    {
      "inputs": [
        {
          "internalType": "bytes",
          "name": "",
          "type": "bytes"
        }
      ],
      "name": "mint",
      "outputs": [],
      "stateMutability": "nonpayable",
      "type": "function"
    },
    {
      "inputs": [
        {
          "internalType": "uint256",
          "name": "",
          "type": "uint256"
        }
      ],
      "name": "ownerOf",
      "outputs": [
        {
          "internalType": "address",
          "name": "",
          "type": "address"
        }
      ],
      "stateMutability": "view",
      "type": "function"
    },
    {
      "inputs": [
        {
          "internalType": "uint256",
          "name": "id",
          "type": "uint256"
        }
      ],
      "name": "tokenURI",
      "outputs": [
        {
          "internalType": "string",
          "name": "",
          "type": "string"
        }
      ],
      "stateMutability": "view",
      "type": "function"
    }
  ],
  "transactionHash": "0xdeb8099b540de2b25114b7a1406ad46ec147d9d3666b894e0b60add058f3bef4",
  "args": [],
  "numDeployments": 1,
  "solcInputHash": "1ce1d9c0927097dcf489a8f8e71f7ab4",
  "bytecode": "0x608060405234801561001057600080fd5b50610f12806100206000396000f3fe608060405234801561001057600080fd5b50600436106100675760003560e01c8063c87b56dd11610050578063c87b56dd146100e1578063cc4c332414610101578063dce4a4471461011457600080fd5b80636352211e1461006c5780637ba0e2e7146100cc575b600080fd5b6100a261007a366004610844565b60006020819052908152604090205473ffffffffffffffffffffffffffffffffffffffff1681565b60405173ffffffffffffffffffffffffffffffffffffffff90911681526020015b60405180910390f35b6100df6100da36600461085d565b610127565b005b6100f46100ef366004610844565b610306565b6040516100c3919061092b565b6100f461010f366004610967565b6103b9565b6100f46101223660046109af565b61041b565b60405160206024820152600760448201527f746f6f206269670000000000000000000000000000000000000000000000000060648201526101a89060840160408051601f198184030181529190526020810180517bffffffffffffffffffffffffffffffffffffffffffffffffffffffff1662461bcd60e51b179052610442565b60006024356160008111156102095762461bcd60e51b6000527c20000000000000000000000000000000000000000000000000000000006020527c07746f6f20626967000000000000000000000000000000000000000000604052604b6000fd5b6040517f610000600081600b8239f30000000000000000000000000000000000000000008260e81b178152816044600b830137600b8201816000f0925050508060000361029d5760405162461bcd60e51b815260206004820152600c60248201527f4352454154455f4641494c53000000000000000000000000000000000000000060448201526064015b60405180910390fd5b60008181526020819052604080822080547fffffffffffffffffffffffff0000000000000000000000000000000000000000163390811790915590518392907fddf252ad1be2c89b69c2b068fc378daa952ba7f163c4a11628f55a4df523b3ef908290a4505050565b606060006103138361041b565b905060006040518060400160405280600681526020017f547269736b610000000000000000000000000000000000000000000000000000815250905060006040518060400160405280600681526020017f747269736b6100000000000000000000000000000000000000000000000000008152509050818183856040516020016103a094939291906109e6565b6040516020818303038152906040529350505050919050565b60606103d2826bffffffffffffffffffffffff166104b6565b6103f373ffffffffffffffffffffffffffffffffffffffff851660146105f3565b604051602001610404929190610c74565b604051602081830303815290604052905092915050565b60408051603f833b908101601f191682019092528181529080600060208401853c50919050565b6104b381604051602401610456919061092b565b60408051601f198184030181529190526020810180517bffffffffffffffffffffffffffffffffffffffffffffffffffffffff167f0be77f5600000000000000000000000000000000000000000000000000000000179052610823565b50565b6060816000036104f957505060408051808201909152600181527f3000000000000000000000000000000000000000000000000000000000000000602082015290565b8160005b8115610523578061050d81610df3565b915061051c9050600a83610e23565b91506104fd565b60008167ffffffffffffffff81111561053e5761053e610e37565b6040519080825280601f01601f191660200182016040528015610568576020820181803683370190505b5090505b84156105eb5761057d600183610e4d565b915061058a600a86610e64565b610595906030610e78565b60f81b8183815181106105aa576105aa610e90565b60200101907effffffffffffffffffffffffffffffffffffffffffffffffffffffffffffff1916908160001a9053506105e4600a86610e23565b945061056c565b949350505050565b60606000610602836002610ea6565b61060d906002610e78565b67ffffffffffffffff81111561062557610625610e37565b6040519080825280601f01601f19166020018201604052801561064f576020820181803683370190505b5090507f30000000000000000000000000000000000000000000000000000000000000008160008151811061068657610686610e90565b60200101907effffffffffffffffffffffffffffffffffffffffffffffffffffffffffffff1916908160001a9053507f7800000000000000000000000000000000000000000000000000000000000000816001815181106106e9576106e9610e90565b60200101907effffffffffffffffffffffffffffffffffffffffffffffffffffffffffffff1916908160001a9053506000610725846002610ea6565b610730906001610e78565b90505b60018111156107cd577f303132333435363738396162636465660000000000000000000000000000000085600f166010811061077157610771610e90565b1a60f81b82828151811061078757610787610e90565b60200101907effffffffffffffffffffffffffffffffffffffffffffffffffffffffffffff1916908160001a90535060049490941c936107c681610ec5565b9050610733565b50831561081c5760405162461bcd60e51b815260206004820181905260248201527f537472696e67733a20686578206c656e67746820696e73756666696369656e746044820152606401610294565b9392505050565b80516a636f6e736f6c652e6c6f67602083016000808483855afa5050505050565b60006020828403121561085657600080fd5b5035919050565b6000806020838503121561087057600080fd5b823567ffffffffffffffff8082111561088857600080fd5b818501915085601f83011261089c57600080fd5b8135818111156108ab57600080fd5b8660208285010111156108bd57600080fd5b60209290920196919550909350505050565b60005b838110156108ea5781810151838201526020016108d2565b838111156108f9576000848401525b50505050565b600081518084526109178160208601602086016108cf565b601f01601f19169290920160200192915050565b60208152600061081c60208301846108ff565b803573ffffffffffffffffffffffffffffffffffffffff8116811461096257600080fd5b919050565b6000806040838503121561097a57600080fd5b6109838361093e565b915060208301356bffffffffffffffffffffffff811681146109a457600080fd5b809150509250929050565b6000602082840312156109c157600080fd5b61081c8261093e565b600081516109dc8185602086016108cf565b9290920192915050565b7f646174613a6170706c69636174696f6e2f6a736f6e2c7b226e616d65223a2200815260008551610a1e81601f850160208a016108cf565b7f222c226465736372697074696f6e223a224125323047616d65222c2265787465601f918401918201527f726e616c5f75726c223a22000000000000000000000000000000000000000000603f8201527f68747470733a2f2f4a5332344b67616d65732e636f6d2f656e74726965732f00604a8201528551610aa7816069840160208a016108cf565b7f222c22696d616765223a22000000000000000000000000000000000000000000606992909101918201527f3c737667253235323076696577426f783d27302532353230302532353230333260748201527f2532353230313627786d6c6e733d27687474703a2f2f7777772e77332e6f726760948201527f2f323030302f737667273e3c746578742532353230783d2735302527793d273560b48201527f302527646f6d696e616e742d626173656c696e653d276d6964646c652774657860d48201527f742d616e63686f723d276d6964646c65277374796c653d2766696c6c3a72676260f48201527f283231392c33392c313139293b666f6e742d73697a653a313270783b273e0000610114820152610bc56101328201866109ca565b7f3c2f746578743e3c2f7376673e222c0000000000000000000000000000000000815290507f22616e696d6174696f6e5f75726c223a22646174613a746578742f68746d6c3b600f8201527f6261736536342c00000000000000000000000000000000000000000000000000602f820152610c4360368201856109ca565b7f227d0000000000000000000000000000000000000000000000000000000000008152600201979650505050505050565b7f646174613a6170706c69636174696f6e2f6a736f6e2c7b226e616d65223a224a81527f5332344b222c226465736372697074696f6e223a4a5332344b2532306f6e2d6360208201527f6861696e2532302e222c22696d616765223a22646174613a696d6167652f737660408201527f672b786d6c3b6261736536342c222c2265787465726e616c5f6c696e6b223a2260608201527f68747470733a2f2f4a5332344b67616d65732e636f6d222c2273656c6c65725f60808201527f6665655f62617369735f706f696e7473223a000000000000000000000000000060a082015260008351610d6a8160b28501602088016108cf565b7f2c226665655f726563697069656e74223a22000000000000000000000000000060b2918401918201528351610da78160c48401602088016108cf565b7f227d00000000000000000000000000000000000000000000000000000000000060c4929091019182015260c601949350505050565b634e487b7160e01b600052601160045260246000fd5b60006000198203610e0657610e06610ddd565b5060010190565b634e487b7160e01b600052601260045260246000fd5b600082610e3257610e32610e0d565b500490565b634e487b7160e01b600052604160045260246000fd5b600082821015610e5f57610e5f610ddd565b500390565b600082610e7357610e73610e0d565b500690565b60008219821115610e8b57610e8b610ddd565b500190565b634e487b7160e01b600052603260045260246000fd5b6000816000190483118215151615610ec057610ec0610ddd565b500290565b600081610ed457610ed4610ddd565b50600019019056fea2646970667358221220cd468c498930e012d2eb82c639bce3c994b76b251c15e011558b09e34a4e246764736f6c634300080d0033",
  "devdoc": {
    "kind": "dev",
    "methods": {},
    "version": 1
  },
  "userdoc": {
    "kind": "user",
    "methods": {},
    "version": 1
  },
  "storageLayout": {
    "storage": [
      {
        "astId": 8314,
        "contract": "src/JS24K.sol:JS24K",
        "label": "ownerOf",
        "offset": 0,
        "slot": "0",
        "type": "t_mapping(t_uint256,t_address)"
      }
    ],
    "types": {
      "t_address": {
        "encoding": "inplace",
        "label": "address",
        "numberOfBytes": "20"
      },
      "t_mapping(t_uint256,t_address)": {
        "encoding": "mapping",
        "key": "t_uint256",
        "label": "mapping(uint256 => address)",
        "numberOfBytes": "32",
        "value": "t_address"
      },
      "t_uint256": {
        "encoding": "inplace",
        "label": "uint256",
        "numberOfBytes": "32"
      }
    }
  }
}